:03000000020800F3
:0C080000787FE4F6D8FD75811B020847E4
:1008C000140800C000F900A400B000990092008252
:0608D00000F80080009812
:10088C00D287EF25E02408F808E6F590ED14601007
:10089C0014601314601624037016C2B3C2B4801013
:1008AC00D2B3C2B4800AC2B3D2B48004D2B3D2B42D
:0408BC00E4FEFF2235
:0F08D700E4FCAF047D0212088C0CBC0BF580F121
:10080C000208D7E493A3F8E493A34003F68001F223
:10081C0008DFF48029E493A3F85407240CC8C333ED
:10082C00C4540F4420C8834004F456800146F6DFBC
:10083C00E4800B01020408102040809008C0E47E84
:10084C00019360BCA3FF543F30E509541FFEE493B1
:10085C00A360010ECF54C025E060A840B8E493A378
:10086C00FAE493A3F8E493A3C8C582C8CAC583CAA3
:10087C00F0A3C8C582C8CAC583CADFE9DEE780BE5B
:0108D6000021
:00000001FF
